:100000000C941F040C9450040C9450040C94500451
:100010000C9450040C9450040C9450040C94500410
:100020000C9450040C9450040C9450040C94500400
:100030000C9450040C9450040C9450040C945004F0
:100040000C9450040C9450040C9450040C945004E0
:100050000C9450040C9450040C9450040C942324DD
:100060000C9450040C94ED230C94C3230C94500472
:100070000C9450040C9450040C9450040C945004B0
:100080000C9450040C9450040C9450040C945004A0
:100090000C9450040C9450040C9450040C94500490
:1000A0000C9450040C9450040C9450040C94500480
:1000B0000C9450040C9450040C9450040C94500470
:1000C0000C9450040C9450040C9450040C94500460
:1000D0000C9450040C9450040C9450040C94500450
:1000E0000C9450040C94B5070C940B060C940E065B
:1000F0000C9436230C942D230C94A70B0C949C1F6A
:100100000C9455230C9422060C9403060C94CF07F0
:100110000C948A050C942C060C94F9050C94CE1CB6
:100120000C94F7040C94870C0C942B230C9434231C
:100130000C9463230C94EA100C94DC200C94C41CE3
:100140000C9414060C94811F0C9452200C94D90B1F
:100150000C94C11C0C9405050C94E70C0C94070638
:100160000C9452230C943D050C943C270C94911C48
:100170000C94441E0C949D210C9440230C943D231C
:100180000C94641A0C9439060C941A230C9447238B
:100190000C9421230C949A1C0C9418060C94460C75
:1001A0000C9430060C943E060C94CB1C0C94C70C9B
:1001B0000C945C230C9426060C9424230C940F1F9F
:1001C0000C94CE070C94A7040C943A060C94D40417
:1001D0000C9434060C9459230C94E3040C944A2395
:1001E0000C94FF050C941E060C940F0C0C946D24BB
:1001F0004602000000FF0800053E5B4F5B3E053EE7
:100200006B4F6B3E051C3E7C3E1C05183C7E3C182B
:10021000051C577D571C051C5E7F5E1C0400183CA6
:100220001805FFE7C3E7FF040018241805FFE7DB04
:10023000E7FF0530483A060E0526297929260540AC
:100240007F05050705407F05253F055A3CE73C5AD9
:10025000057F3E1C1C0805081C1C3E7F0514227FE0
:10026000221405FFFFFFFFFF05F0F0F0F0F003FFA1
:10027000FFFF05000000FFFF050F0F0F0F0F050820
:10028000047E04080510207E20100508082A1C089A
:1002900005081C2A080805AA005500AA05AA55AA9F
:1002A00055AA0530383E383005060E3E0E060200CF
:1002B00000015F0307000705147F147F1405444AFB
:1002C000FF4A32056313086463053649493648011D
:1002D00007033E41410341413E05082A1C2A080507
:1002E00008083E08080260E0040808080802606088
:1002F000056010080403053E5149453E0304027F92
:10030000057149494946054149494936050F0808DB
:10031000087F054F49494931053E494949300503A0
:100320000101017F05364949493605064949493EDB
:10033000026C6C026CEC03081422041414141403F1
:10034000221408050159090906053E415D594E056B
:100350007E0909097E057F49494936053E414141EB
:1003600041057F4141413E057F49494941057F099A
:10037000090901053E41414979057F0808087F03C5
:10038000417F4105304141413F057F08142241052D
:100390007F40404040057F020C027F057F0408102B
:1003A0007F053E4141413E057F09090906053E4161
:1003B00041617E057F0919294605464949493105AC
:1003C00001017F0101053F4040403F051F204020C3
:1003D0001F053F4038403F056314081463050304BC
:1003E000780403056151494543037F4141050304F6
:1003F0000810600341417F0504020102040480806B
:10040000808003010204043844447C047F4444385F
:100410000438444444043844447F04385454580451
:10042000047E05010418A4A47C047F040478017DE3
:100430000384857C047F102844017F057C047804B4
:1004400078047C040478043844443804FC242418D8
:1004500004182424FC047C04040804585454340371
:10046000047F04043C40407C041C20407C053C404C
:1004700030403C046C10106C041CA0A07C0464543C
:10048000544C0408364141017F04414136080402BE
:10049000010201057F4141417F053E55555541050A
:1004A0003844443844057C2A2A3E14057E0202065C
:1004B0000605027E027E0205635549416305384404
:1004C000443C0405407E201E200506027E020208F0
:1004D0006313086463006060052A2A2A2A2A0351EC
:1004E0004A4403444A51050000FF010303E080FF32
:1004F00005361236243603020502021818021010BF
:10050000053040FF0101041F01011E000000000929
:1005100001017F017F020C027F000000000000014A
:1005200000017D0418247E2404447E454105221CDC
:10053000141C2205012A7C2A010177044E555539E5
:1005400003020002077E81BDA5A5817E0326292F17
:100550000508142A142204080808180308080807C4
:100560007E81BD95A9817E0501010101010302057E
:100570000203242E24031915120315150A02020181
:1005800004F82040780506097F017F02181804004E
:1005900080A0C003121F10032629260522142A1446
:1005A0000808402F1008041E117C08402F10080472
:1005B00062554C0915553F1008041E117C05304842
:1005C000484D4005781516147805781416157805E9
:1005D0007A1514157A0578161516790578151415F7
:1005E00078057814151478077E09097F4949410573
:1005F0009EA1612121057C54554644057C545645F5
:1006000044057E55544546057C5554454403457E76
:100610004403447E4503467D4603457C4505087FEB
:1006200049413E057C0A11227D053844454638057E
:100630003844464538053A4544453A053846454626
:1006400039053845444538052214081422057C62D2
:100650005A463E053C4041423C053C4042413C0537
:100660003C4241423C053C4140413C0502047A0584
:1006700002043F12120C057E49494E3004384546AB
:100680007C043844467D043846457E043A45467D20
:10069000043845447D04304A4D7A07205454385478
:1006A0005458049CA26222043855565804385456B3
:1006B00059043856555A043855545902017A027A69
:1006C00001030279020302780204304B4B3C047AA6
:1006D000090A710430494A300430484A3104304A2A
:1006E00049320432494A3104394444390508082A58
:1006F00008080438544C38043841427804384042E1
:1007000079043842417A043A40407A0418A0A27928
:1007100004FC282810041AA0A07A0000210024005C
:1007200027002A002D0030003300010100000401E1
:1007300007010A0100002200250028002B002E00DE
:100740003100340002010000050108010B01000026
:1007500020002300260029002C002F003200000179
:100760000000030106010901050505050705080844
:100770000808020202020A0A08080404040401012B
:100780000101010101010303030303030303040740
:1007900007070C0C0C0C0C0C0C0C020202020606D7
:1007A0000606060606060B0B0B0B0B0B0B0B0102CA
:1007B0001020200808102040102040800201020173
:1007C000080402010102040810204080804020102B
:1007D0000804020180040201804020100804020184
:1007E00008040201010204081020408001020408EC
:1007F0001020408000000A0B02090C0D0E080703B0
:1008000004010000000000000000000000000000E3
:1008100000000000000000000000000000000000D8
:100820001211100000000000000000000000000095
:10083000000000000000000000006D243C2711248F
:100840001FBECFEFD1E2DEBFCDBF00E00CBF12E094
:10085000A0E0B2E0E8EEF3E500E00BBF02C00790D5
:100860000D92AE3AB107D9F723E0AEEAB2E001C08B
:100870001D92AC3EB207E1F714E0CEE1D4E000E017
:1008800006C021970109802FFE010E94A528CD31C5
:10089000D10780E00807A9F70E946A250C94E22995
:1008A0000C940000829590E09C0135952795359534
:1008B00027952373880F991F880F991F8C7C282BED
:1008C00030E0C901959587958575220F331F2A7AE7
:1008D000822B0895CF93DF93262F2695382F70E033
:1008E000680F791FFC018E2F831B821750F48191B2
:1008F00061507109DB019C91EF01219798838C93E2
:10090000F2CFDF91CF910895482FFC018E2F841BE9
:100910008617E0F4219130E0C9019595879585759A
:10092000220F331F2A7A822B90E09C013595279560
:10093000359527952373880F991F880F991F8C7CF5
:10094000822B8295DF0111978C93E0CF0895AF92AF
:10095000BF92CF92DF92EF92FF920F931F93CF93AC
:10096000DF936C017B018B01040F151FEB015E010E
:10097000AE18BF08C017D10759F06991D601ED91A3
:10098000FC910190F081E02DC6011995892B79F732
:10099000C501DF91CF911F910F91FF90EF90DF90F4
:1009A000CF90BF90AF900895FC01538D448D252FBB
:1009B00030E0842F90E0821B930B541710F0CF96F9
:1009C000089501970895FC01918D828D981761F02B
:1009D000A28DAE0FBF2FB11D5D968C91928D9F5F42
:1009E0009F73928F90E008958FEF9FEF0895FC0121
:1009F000918D828D981731F0828DE80FF11D858DD4
:100A000090E008958FEF9FEF0895FC01918D228D66
:100A1000892F90E0805C9F4F821B91098F739927EB
:100A2000089589EC92E00E94050521E0892B09F4E4
:100A300020E0822F0895FC01A48DA80FB92FB11DCD
:100A4000A35ABF4F2C91848D90E001968F73992704
:100A5000848FA689B7892C93A089B1898C918370E2
:100A600080648C93938D848D981306C00288F389DB
:100A7000E02D80818F7D80830895EF92FF920F9308
:100A80001F93CF93DF93EC0181E0888F9B8D8C8D3A
:100A900098131AC0E889F989808185FF15C09FB72E
:100AA000F894EE89FF896083E889F98980818370F1
:100AB000806480839FBF81E090E0DF91CF911F91A0
:100AC0000F91FF90EF900895F62E0B8D10E00F5FC1
:100AD0001F4F0F731127E02E8C8D8E110CC00FB697
:100AE00007FCFACFE889F989808185FFF5CFCE012F
:100AF0000E941B05F1CFEB8DEC0FFD2FF11DE35A8A
:100B0000FF4FF0829FB7F8940B8FEA89FB898081B1
:100B10008062CFCFCF93DF93EC01888D8823B9F02B
:100B2000AA89BB89E889F9898C9185FD03C08081F8
:100B300086FD0DC00FB607FCF7CF8C9185FFF2CF75
:100B4000808185FFEDCFCE010E941B05E9CFDF91AB
:100B5000CF91089580E090E0892B29F00E94110543
:100B600081110E94000080E090E0892B49F080E034
:100B700090E0892B29F00E94000081110E94000062
:100B800080E090E0892B49F080E090E0892B29F00B
:100B90000E94000081110E94000080E090E0892BFB
:100BA00049F080E090E0892B29F00E94000081113B
:100BB0000C94000008958150823108F05AC0E82F4B
:100BC000F0E08827E951FA4F8F4F0C94A5280706CB
:100BD0000B06F905FF05030639060E06140618066E
:100BE0001E06220626062C063006390634063A066C
:100BF0003E06809180008F778093800008958091D9
:100C000080008F7DF9CF80918000877FF5CF84B5FC
:100C10008F7784BD089584B58F7DFBCF8091B00020
:100C20008F778093B00008958091B0008F7DF9CFC9
:100C3000809190008F77809390000895809190002C
:100C40008F7DF9CF80919000877FF5CF8091A000B4
:100C50008F778093A00008958091A0008F7DF9CFB9
:100C60008091A000877FF5CF809120018F778093BE
:100C700020010895809120018F7DF9CF809120017E
:100C8000877FF5CFCF93DF93282F30E0F901EC5029
:100C9000F84F8491F901E255F84FD491F901E859E0
:100CA000F84FC491CC23A1F081110E94DB05EC2FF9
:100CB000F0E0EE0FFF1FE25BF84FA591B491EC91CD
:100CC000ED2381E090E009F480E0DF91CF91089579
:100CD00080E090E0FACF1F93CF93DF93282F30E08E
:100CE000F901EC50F84F8491F901E255F84FD49195
:100CF000F901E859F84FC491CC23A9F0162F8111BE
:100D00000E94DB05EC2FF0E0EE0FFF1FEC5CF84FCC
:100D1000A591B4918FB7F894EC91111108C0D095BA
:100D2000DE23DC938FBFDF91CF911F910895DE2BDF
:100D3000F8CFCF93DF9390E0FC01E255F84F249178
:100D40008859984FFC0184918823D1F090E0880F56
:100D5000991FFC01E65EF84FA591B491FC01EC5C93
:100D6000F84FC591D49161110EC09FB7F8948C9142
:100D7000E22FE0958E238C932881E223E8839FBFA6
:100D8000DF91CF9108958FB7F894EC91E22BEC931B
:100D90008FBFF6CFFC018385681738F5248535852C
:100DA00079E0679F200D311D1124848150E09381EB
:100DB000992371F0882331F087E090E0FC01E41B77
:100DC000F50BAF01240F351FF90180810C945204FB
:100DD000882331F087E090E0BC01641B750BAB0108
:100DE000240F351FF9018081089580E008958F92C6
:100DF0009F92AF92BF92CF92DF92EF92FF92CF93EA
:100E0000DF93FC01242F30E08381882309F447C05D
:100E100087E090E0821B930B91E001C0990F8A95C7
:100E2000EAF78385681708F040C024853585A90155
:100E300089E0689F400D511D1124BA01E48130E022
:100E400020E080E0A7E0B0E0C12CD12C7601C39473
:100E5000F22FAD01421B530BE11101C0A901460F56
:100E6000571FEA014881492351F04601570104C048
:100E7000880C991CAA1CBB1CFA95D2F788292F5FF5
:100E80003F4F2830310521F7DF91CF91FF90EF9050
:100E9000DF90CF90BF90AF909F908F90089591E09A
:100EA00001C0990F4A95EAF7BCCF80E0EDCFFC0175
:100EB000228121110C94F7060C94CA06462F477024
:100EC0006695669566950C945707FC01848D90A1F4
:100ED000A6A5B7A591FD15C0882381F0808D918DC1
:100EE0000597A9F481E024A535A52A173B0709F049
:100EF00080E080AB1197B7A7A6A70895828D938D48
:100F0000EFCF882379F0808D918D059759F7CD012A
:100F1000019697A786A781E011969C91911180E098
:100F200080AB0895828D938DF0CFFC0186899789DF
:100F30008230910591F42389348936A325A331A702
:100F400020A78230910561F42189328933A722A735
:100F5000029749F08FEF87A3089521893289EDCF59
:100F600023893489F3CF81E0F6CFCF93DF931F92AB
:100F70001F92CDB7DEB769831A82DC01ED91FC9137
:100F80000084F185E02DBE016F5F7F4F199581E0F0
:100F900090E00F900F90DF91CF910895089590E029
:100FA00080E008950F931F93CF93DF93082F162FA0
:100FB000D42FC8E06D2F661F6627661F802F0E9402
:100FC0006B06DD0F61E0812F0E946B0660E0812FD0
:100FD0000E946B06C15071F7DF91CF911F910F9165
:100FE00008950F931F93CF93DF931F921F92CDB756
:100FF000DEB769834A83880F991F0091BD03109162
:10100000BE03000F111FE7E6F3E09F0127563340B0
:101010002017310714F41192F8CF2981FC01E95906
:10102000FC4F21838A81808360E08091BB030E9412
:101030006B06101611066CF401501109F801E959FC
:10104000FC4F40816091B9038091B7030E94D207A1
:10105000F0CF61E08091BB030F900F90DF91CF91B3
:101060001F910F910C946B06BF92CF92DF92EF927B
:10107000FF920F931F93CF93DF93C7E6D3E023E054
:10108000C22E22E0D22EBB24B39430E8E32EF12C02
:1010900010E000E08091BD039091BE031816190680
:1010A000CCF4C701002E02C0959587950A94E2F70B
:1010B0002889F801EE0FFF1FEC0DFD1D40815181C5
:1010C000452BF9F0822B888B48896B2D90E080E0CE
:1010D0000E94F1070F5F1F4F08301105D9F62196C6
:1010E000B39480E1C80ED11C89E0B812D1CFDF9152
:1010F000CF911F910F91FF90EF90DF90CF90BF9015
:10110000089580958223DFCF0F931F93CF93DF93B2
:10111000EC0188858823A1F08091BB02882361F0CF
:101120008FB7F8949091BB02913041F59DB39093A5
:10113000BA029DB39DBB8FBF80E58CBD81E08DBDA4
:1011400060E08F810E946B0688858823D1F030E0B3
:1011500020E08B8590E0880F991F2817390730F51C
:10116000EE85FF85E20FF31F80818EBD00000DB478
:1011700007FEFDCF8EB52F5F3F4FEBCF8093BA02B6
:10118000DBCF10E000E08B8590E0880F991F0817F7
:10119000190760F4EE85FF85E00FF11F40816E8135
:1011A0008D810E94D2070F5F1F4FEDCF61E08F81CD
:1011B0000E946B068885882371F08091BB0288238A
:1011C00051F09FB7F8942091BB028091BA02213070
:1011D00039F48DBB9FBFDF91CF911F910F9108957F
:1011E0008FBFF9CFFC01438550E0440F551F70E0DD
:1011F00060E0868597850C94DB29BF92CF92DF92C1
:10120000EF92FF920F931F93CF93DF93FC012385FF
:10121000621708F04EC0EC01F9E06F9F70011124D5
:10122000D12CC12C062F10E0BB24B394BC0CEC8550
:10123000FD85EE0DFF1D808590E00C2C02C095957C
:1012400087950A94E2F780FF27C0CE010E94F2083A
:101250008B858150990B801B910B880F991F2E85D0
:101260003F85820F931FFC01B082EC85FD85EE0D5A
:10127000FF1DEC0DFD1D40818B858150990B801B5E
:10128000910B880F991F2E853F85820F931FFC01BC
:101290004183CE010E948408FFEFCF1ADF0A88E065
:1012A000C816D10409F68C859D85E80EF91EF70154
:1012B0001086DF91CF911F910F91FF90EF90DF90FB
:1012C000CF90BF9008950F931F93CF93DF93EC01BE
:1012D000162F042F822F9B8191110E94520499E0B6
:1012E000199F90011124AC85BD85A20FB31F602FFB
:1012F00070E09C8147E050E0461B570B911101C004
:10130000AB01A40FB51F8C93EC85FD85E20FF31F95
:1013100020858C818823F1F047E050E0461B570B75
:1013200081E090E0A0E0B0E004C0880F991FAA1F00
:10133000BB1F4A95D2F7822B80878C89882321F0A6
:10134000612FCE010E94FD0881E0DF91CF911F91B6
:101350000F91089581E090E0A0E0B0E004C0880F14
:10136000991FAA1FBB1F0A95D2F7E5CF9F92AF9294
:10137000BF92CF92DF92EF92FF920F931F93CF9382
:10138000DF93FC0189E0689FE001112481E090E097
:10139000A0E0B0E06C017D01042E04C0CC0CDD1C8B
:1013A000EE1CFF1C0A94D2F7BC2C7C2D709507E034
:1013B00010E0041B110904C0880F991FAA1FBB1F4E
:1013C0000A95D2F7A82E382F309590E080E0022FB2
:1013D00010E027E0E22EF12CAC01A485B585AC0F1E
:1013E000BD1F248193806801082E02C0D594C79444
:1013F0000A94E2F7C0FE2AC0222319F0A701481B75
:10140000590BA40FB51F2C914B2D91104A2D242B55
:101410002C93019688309105F9F684859585C80F3F
:10142000D91F8FEF88878489882319F0CF010E9404
:10143000FD0881E0DF91CF911F910F91FF90EF9018
:10144000DF90CF90BF90AF909F900895222319F026
:10145000A701481B590BA40FB51F2C91472F9110C2
:10146000432F2423D5CFFC0152813385552321F00E
:10147000631730F40C94B609631710F40C946309E5
:1014800080E00895242F462F477033E076956795C6
:101490003A95E1F70C94330AFC01528133855523C8
:1014A00031F0631750F4483041F00C94630963172E
:1014B00020F4483011F00C94B60980E00895CF92E2
:1014C000DF92EF92FF920F931F93CF93DF93FC0174
:1014D000722F82815385882309F45DC0651708F057
:1014E000BEC0283009F4BBC009E0609F7001112420
:1014F000848595858E0D9F1D50E0A22FB0E024813C
:101500002223B9F127E030E0E901C41BD50BAE017D
:101510002A1B3B0B480F591FEA014881820F931F7A
:10152000EC01488384859585E701C80FD91F28857C
:101530008481882301F147E050E04A1B5B0B81E086
:1015400090E0A0E0B0E004C0880F991FAA1FBB1F65
:101550004A95D2F7822B88878489811118C081E04F
:10156000DF91CF911F910F91FF90EF90DF90CF907F
:1015700008959D01CFCF81E090E0A0E0B0E004C0ED
:10158000880F991FAA1FBB1F7A95D2F7E3CFCF010F
:101590000E94FD08E4CFA42FB0E09381992309F4C1
:1015A0004FC027E030E02A1B3B0B91E001C0990FB0
:1015B0002A95EAF76517A0F6783091F2D9E06D9F89
:1015C000A001112401E010E020E030E06801790181
:1015D000072E04C0CC0CDD1CEE1CFF1C0A94D2F7B5
:1015E000DC2DCC2DC095A7E0B0E0A71BB10904C04D
:1015F000000F111F221F331FAA95D2F7F02E00955E
:1016000030E020E0A485B585A40FB51FA20FB31F5D
:101610008C917381182F1923D9F0711117C07D2F68
:10162000872B8C932F5F3F4F2830310559F78485E6
:101630009585480F591F8FEFDA0118968C938CCF40
:1016400091E001C0990F4A95EAF7B4CF7F2DE8CF1A
:10165000711103C07C2F8723E4CF702FFCCF80E073
:101660007FCF8F929F92AF92BF92CF92DF92EF92F5
:10167000FF920F931F93CF93DF9300D000D01F9260
:101680001F92CDB7DEB78C01D62E29E0629F700184
:101690001124FA013197E730F10568F48827EC5AF4
:1016A000F44F8F4F0C94A528A70BD90B0F0C460CA9
:1016B000870CC70CE70CDC0112968C918823C1F1D2
:1016C00030E020E0D8011C96ED91FC911D97EE0DC5
:1016D000FF1DE20FF31F808113969C91992331F136
:1016E00090E09595879580832F5F3F4F2830310597
:1016F00049F7F80184859585E80EF91E8FEFD7012B
:1017000018968C9381E028960FB6F894DEBF0FBE32
:10171000CDBFDF91CF911F910F91FF90EF90DF90A0
:10172000CF90BF90AF909F908F900895880FDBCFA0
:1017300087E090E0D8011C96ED91FC91EE0DFF1D25
:10174000E80FF91F208121830197A0F7D2CFF8017C
:1017500082818823E1F030E020E0D8011C96ED91F1
:10176000FC911D97EE0DFF1DE20FF31F8081139674
:101770009C91992341F0880F80832F5F3F4F283041
:10178000310559F7B6CF90E095958795F5CF81E073
:1017900090E0D8011C96ED91FC91EE0DFF1DE80F35
:1017A000F91F20813197208301968830910589F7B0
:1017B000A0CFF801C28085898823F9F040E0C801F4
:1017C000CC20C1F00E94CA068983CC20C1F020E061
:1017D000CC24C394C20E4C2D6D2DC8010E945F0A0B
:1017E0002C2D2730A9F7298147E06D2DC8010E94D3
:1017F0004C0A7FCF0E94F706E7CF1982E6CF87E039
:1018000090E0D8011C96ED91FC91EE0DFF1DE80FC4
:10181000F91F2081220F2083019798F7E4CFF80168
:10182000C28085898823D9F047E0C801CC20A1F087
:101830000E94CA068983CC20A1F028E0CC24CA9457
:10184000C20E4C2D6D2DC8010E945F0A2C2DC110B7
:10185000F5CF298140E0C9CF0E94F706EBCF19826E
:10186000EACF30E020E0D8011C96ED91FC91EE0D1E
:10187000FF1DE20FF31F808190E09595879580838F
:101880002F5F3F4F2830310571F7E3CFF801828198
:101890008823C1F0B12CA12CD8011C96CD90DC90EE
:1018A000CE0CDF1CCA0CDB1CF60180810E945204A6
:1018B000D6018C93BFEFAB1ABB0AE8E0AE16B104B9
:1018C00059F717CF30E020E047E050E0D8011C96F0
:1018D0008D919C918E0D9F1DFC01E20FF31FD08016
:1018E000BA01621B730B860F971FDC018C918083FA
:1018F000D8011C96ED91FC91EE0DFF1DE60FF71F30
:10190000D0822F5F3F4F2430310501F7F2CEF8012E
:101910008281882329F130E020E047E050E0D801BF
:101920001C968D919C918E0D9F1DFC01E20FF31F63
:10193000D080BA01621B730B860F971FDC018C915C
:101940008083D8011C96ED91FC91EE0DFF1DE60FF2
:10195000F71FD0822F5F3F4F2430310501F7C9CEEA
:10196000B12CA12CF801C484D584CE0CDF1CCA0C88
:10197000DB1CD6018C910E945204F6018083FFEF9C
:10198000AF1ABF0A28E0A216B10461F7B2CECE01A9
:1019900001965C014C0187E0C82E4C2D6D2DC801CD
:1019A0000E945707D4018D934D01CA94BFEFCB120B
:1019B000F4CFC12CF50121915F014C2D6D2DC80193
:1019C0000E944C0AC394F8E0CF12F4CF92CE90E07C
:1019D00080E0D8011C96ED91FC91EE0DFF1DE80F03
:1019E000F91F20812095208301968830910589F781
:1019F00080CECF92DF92EF92FF920F931F93CF93FF
:101A0000DF93EC01DD24D394F12CE12C01E010E014
:101A1000B9E0CB2ECE010E94F20898010E2C02C034
:101A2000220F331F0A94E2F7E0E090E08B85E8177D
:101A300098F5EC9DA0011124AC85BD85A40FB51FC0
:101A400018966C9170E062237323672B19F16E2F47
:101A500070E08150990B861B970B880F991FAE85FC
:101A6000BF85A80FB91FDC92AC85BD85A40FB51F3B
:101A7000AE0DBF1DFC918B858150990B861B970B7A
:101A8000880F991F4E855F85840F951FDC01119685
:101A9000FC9391E0EF5FCACF992319F0CE010E9429
:101AA0008408BFEFEB1AFB0AD39488E0E816F10430
:101AB00009F0B0CF80E099E02B85821748F4EC85DF
:101AC000FD85899FE00DF11D112410868F5FF4CFF5
:101AD000DF91CF911F910F91FF90EF90DF90CF900A
:101AE00008956F927F928F929F92AF92BF92CF9202
:101AF000DF92EF92FF920F931F93CF93DF9300D06B
:101B000000D000D0CDB7DEB78C01E62EF42E5901FF
:101B1000D12C461708F4D5C0DC015496DC905497BC
:101B200054961C9224303105B0F522303105C8F5A9
:101B30002130310509F4DBC0D80155968C918823FA
:101B400009F486C06F2D660F660F660F695FC801C6
:101B50000E945E07C82EAE2CB12C8F2D0F2C000CCE
:101B6000990B8A159B050CF489C050E040E06F2D5D
:101B7000C8010E94310B99249A949F0C47E0692D6B
:101B8000C8010E945707282F40E06F2DC8010E940E
:101B9000330AF92CE2CF2430310561F028303105C9
:101BA00058F6A5016E2DC8010E94310BE394FE1476
:101BB000C0F77EC0642F70E0AE2CB12C4B018A18A8
:101BC0009B08BFEF8B1A9B0A97FE03C0EFEF8E1A9C
:101BD0009E0A95948794712C29E0C22E472D50E0DF
:101BE000481559050CF0CFC0F80124853585FA0158
:101BF000EA0DFB1DCE9EC001CF9E900D1124820FD9
:101C0000931FFC01DE0111966C2C01900D926A94D9
:101C1000E1F7FB01E41BF50BCE9EA001CF9E500D1A
:101C20001124F901E40FF51FDC018C2D01900D92B8
:101C30008A95E1F7F801A485B585A40FB51FFE01CB
:101C400031968C2D01900D928A95E1F77394C6CF51
:101C5000F801A288B388A114B10471F06F2D660F4A
:101C6000660F660F695FC8010E945E07482F70E02B
:101C700060E08F2DF5011995C12C6DCFD8015096DC
:101C8000ED91FC915197309749F055968C918111C7
:101C900005C070E060E08E2D1995C82EB50183E077
:101CA000660F771F8A95E1F74C2DC8010E94420A02
:101CB000D8015496DC92DD2009F46FC0C8010E945F
:101CC000F90C8D2D29960FB6F894DEBF0FBECDBF4F
:101CD000DF91CF911F910F91FF90EF90DF90CF9008
:101CE000BF90AF909F908F907F906F900895FC0170
:101CF00085898823A9F1660F660F660FC8010E94C7
:101D00005E07C82E41E050E06E2DC8010E94310BE5
:101D1000BB24B394BE0C40E06B2DC8010E94570752
:101D2000282F47E06E2DC8010E94330AEB2CFB14CC
:101D300048F7D8015096ED91FC915197309749F0B2
:101D400055968C91811105C061E070E08F2D199539
:101D5000C82EB8E0FB9EB0011124695F7F4FA4CF6D
:101D6000A288B388A114B10461F0660F660F660FF4
:101D7000C8010E945E07482F61E070E08E2DF501DA
:101D80001995C12CBFCF44E050E06E2DC8010E94D0
:101D9000310BE394FE14B8F78BCFDD24D39491CFAD
:101DA000FF920F931F93CF93DF93FC0161A304A1D4
:101DB00013A10117A0F1F62EC081D181CE010E949E
:101DC000F2084AE06F2D70E0212F30E08B858150C2
:101DD000990B821B930B880F991FEE85FF85E80FE7
:101DE000F91F40838B858150990B821B930B880FC1
:101DF000991F2E853F85820F931F262F6031710515
:101E00000CF02FE0FC0121831F5F0117E8F6CE01E3
:101E1000DF91CF911F910F91FF900C948408DF9177
:101E2000CF911F910F91FF9008950F931F93CF9320
:101E3000DF93EC018CA19BA1891708F1E881F9815E
:101E400069E058E04FEF969F90011124A485B58575
:101E50008D01020F131FD801752F1D927A95E9F796
:101E6000A485B585A20FB31F18964C939F5F891761
:101E700050F78489882319F0CF010E94F90C8D8DC9
:101E8000882361F027E030E04CA16BA18881998123
:101E9000DF91CF911F910F910C94710DDF91CF9134
:101EA0001F910F9108958F929F92AF92BF92CF9200
:101EB000DF92EF92FF920F931F93CF93DF93EC018A
:101EC0007B01142FC901E9A9FAA9309729F12081D2
:101ED00031812E153F05E1F40280F381E02D208150
:101EE000211708F4122F412F50E0BF016F5F7F4F81
:101EF0000E94D229812FDF91CF911F910F91FF90E6
:101F0000EF90DF90CF90BF90AF909F908F9008950B
:101F10000480F581E02DD9CFA881B9810AACDBAD71
:101F2000C02D56962D913C915797C217D30709F4AF
:101F300099C0209711F4C0EFD1E05796DC93CE936F
:101F4000569758961C92589728E059962C93599773
:101F50005A961C925A975C961C921E925B972FEF92
:101F600030E05E963C932E935D9790961C921E9265
:101F70005F97FE012491263409F031C03196E49137
:101F8000E13009F453C022E030E0E23021F5FE01F7
:101F9000329624913196E49130E0322F22272E0F91
:101FA000311D5C963C932E935B97FE0134962491F1
:101FB0003196E49130E0322F22272E0F311D5E96AC
:101FC0003C932E935D97FE013696E4915996EC93DF
:101FD000599727E030E090963C932E935F975F9659
:101FE0008D909C909097B12CA12C5B962D913C915B
:101FF0005C975D96CD90DC905E9700E0C216D306AC
:1020000070F1FE01E80DF91D4491041708F4042F46
:1020100050E070E060E04F5F5F4F6F4F7F4F840E86
:10202000951EA61EB71E2F5F3F4FE8CFFE013296CA
:10203000E491F0E05C96FC93EE935B97FE0133969F
:10204000E491F0E05E96FC93EE935D97FE0134968A
:10205000E4915996EC93599725E030E0BCCF5A961D
:102060000C935A97009709F44CC05F964D915C9180
:10207000909770E060E05B962D913C915C97E21642
:10208000F30608F438C05D96ED91FC915E97EE156D
:10209000FF0588F15696CD91DC915797FE01E40F2C
:1020A000F51FE216F30661F0E4914E0F511D611D1C
:1020B000711D4F5F5F4F6F4F7F4F2F5F3F4FEECFD1
:1020C0002491121700F54F5F5F4F6F4F7F4FEC0168
:1020D000481B590B2C2F281B211708F00BCF9A01F6
:1020E0002C0F3D1F5696ED91FC915797E20FF31F71
:1020F000E491E993EFCF412F50E070E060E00E945F
:10210000DB2910E0F7CE1491DECF1F93CF93DF933E
:10211000EC01142F2CA93DA94BA90E94530F1123A8
:1021200089F0882379F090E02EA9921758F42BA912
:10213000821730F4ECA9FDA9E80FF11D10828F5F22
:102140009F5FF2CFDF91CF911F9108950F931F935F
:10215000CF93DF93EC018B01EEA5FFA541E08181D8
:10216000811101C040E0608170E0CE010E948510C5
:10217000F801808328A19C8D21FD10C0992359F07E
:10218000288D398D2530310581F4682F8CA99DA9C2
:102190000E946A040AC02A8D3B8DF4CF9923B9F0BE
:1021A000288D398D2530310581F788A180FF06C043
:1021B000F80160818CA99DA90E948404CE010E942F
:1021C000650781E0DF91CF911F910F9108952A8DCE
:1021D0003B8DE8CFCF92DF92EF92FF920F931F9348
:1021E000CF93DF937C016B01EA01CA0101960E9443
:1021F000AD288C010097F1F0AE01B6010E94D22902
:10220000F801EC0FFD1F1082D701ED91FC910084C5
:10221000F185E02DB801C7011995C8010E9449292F
:10222000CE01DF91CF911F910F91FF90EF90DF9042
:10223000CF900895D0E0C0E0F3CF0F931F93CF93DA
:10224000DF93EC01FB011082ACA5BDA5BFA7AEA733
:10225000109719F08C91811108C081E088AB80E063
:10226000DF91CF911F910F91089518AA8C8D98A19D
:1022700091FD10C0882359F0888D998D059781F4C0
:102280000D900020E9F71297BFA7AEA709C08A8D6D
:102290009B8DF4CF882331F1888D998D059781F737
:1022A000AEA5BFA541E011968C911197811101C097
:1022B00040E08B016C9170E0CE010E948510F80126
:1022C000808328A19C8D21FD13C0992371F0288D56
:1022D000398D2530310599F4682F8CA99DA90E946C
:1022E0006A040DC08A8D9B8DD9CF2A8D3B8DF1CF8D
:1022F000992399F0288D398D2530310569F788A10A
:1023000080FF06C0F80160818CA99DA90E94840409
:10231000CE010E94650781E0A3CF2A8D3B8DECCFD3
:10232000CF92DF92EF92FF920F931F93CF93DF93A1
:10233000EC010E94150FC988DA887E0187E3E80E58
:10234000F11CB701CE010E941D1119AE18AE860115
:102350008B899C89081719077CF18FA928AD39ADA5
:102360008217130611F081110AC01FAA88A98111D2
:1023700004C0B701CE010E94A61019AE18AE8FA9F5
:10238000882331F38881998148AD59AD9A012F5F37
:102390003F4FECA9FDA9E40FF51F4D8D39AF28AFD4
:1023A000442341F040814095B8010E94420A015007
:1023B0001109CECF4081F8CFDF91CF911F910F91BE
:1023C000FF90EF90DF90CF900895FF920F931F93AF
:1023D000CF93DF93EC01F62E8D859E85442309F47F
:1023E00062C08430910530F5019758F18D859E8546
:1023F000059721F483E090E09E878D87CE010E94AF
:1024000090110DA11EA12FA18AA59BA5820F911D40
:1024100027FD9A9580179107E1F04D8D4195B80100
:10242000888199810E94420A8FA1080F111D87FDA2
:102430001A95E9CF0597D1F285E090E09E878D87C8
:102440002CC0CE010E94950783E090E09E878D8787
:10245000CDCFFF2069F06DA17EA10617170741F0CF
:102460004D8D81E048274195888199810E94420ADB
:102470008DA19EA12FA1022E000C330B4AA55BA5B6
:10248000420F531F8417950721F445E050E05E8703
:102490004D87820F931F9EA38DA3DF91CF911F9134
:1024A0000F91FF9008958430910500F5019700F198
:1024B000CE010E94901108A519A56DA17EA18FA142
:1024C000082E000C990B9B01280F391F201731078C
:1024D000B9F04D8D4195B801888199810E94420AD9
:1024E0008FA1080F111D87FD1A95E7CF059751F5AC
:1024F000CE010E94950783E090E09E878D87D8CF1C
:10250000FF2079F02AA53BA5820F931F6817790752
:1025100041F04D8D81E048274195888199810E9445
:10252000420A8DA19EA12FA1022E000C330B4AA5B9
:102530005BA5420F531F8417950709F0AACF46E009
:1025400050E0A5CF86E090E079CFAF92BF92CF92D6
:10255000DF92EF92FF920F931F93CF93DF93EC01E3
:10256000D62E8D859E85442309F46BC08430910559
:1025700080F50197A8F1CE010E94150FCE010E94AF
:102580009011EBA088E0E89E70011124CC24C39444
:10259000D11002C050E8C52E0DA11EA18CA190E063
:1025A000019643E0880F991F4A95E1F7E816F9066E
:1025B00094F5A880B9806E2DC5010E945E071016A3
:1025C0000CF5DD20E9F0880F9D8D91118C290150CB
:1025D000F6CF059781F285E090E09E878D8726C033
:1025E00087E090E09EA38DA39CA18BA1981718F083
:1025F000E881F981158A83E090E09E878D87BBCFC3
:102600008695E2CF482FB701C5010E94420A8FEF9D
:10261000E81AF80AC1CF0115110521F485E090E010
:102620009E878D87015011091EA30DA3DF91CF91C5
:102630001F910F91FF90EF90DF90CF90BF90AF90E0
:1026400008958430910560F5019760F10BA188E051
:10265000089F8001112430E8C32ED11002C0CC2481
:10266000C3948CA190E0019623E0880F991F2A95CE
:10267000E1F708171907FCF4E880F980602FC7011B
:102680000E945E07482FDD20A1F046958D8D8111B7
:102690004C29B801C7010E94420A0F5F1F4FE1CFCA
:1026A0000597B1F41EA21DA283E090E09E878D875E
:1026B000CDCF440FEBCF8DA19EA18730910521F4A2
:1026C00026E030E03E872D8701969EA38DA3AECFF6
:1026D00086E090E082CFCF92DF92EF92FF921F933D
:1026E000CF93DF93EC01D42E8D859E85662309F46C
:1026F00058C084309105A8F50197D0F1CE010E9411
:1027000090112DA13EA12830310569F1E8A4F9A46A
:1027100081E090E001C0880F2A95EAF7182FD110C8
:1027200010952FA18AA59BA5820F911D27FD9A9533
:102730008E159F0549F1C880D9806E2DC6010E9473
:102740005E079D8D412F9923E9F04095482BB701F5
:10275000C6010E94420A8FA1E80EF11C87FDFA947F
:10276000E0CF059759F285E090E09E878D8711C0F4
:10277000CE010E9495071EA21DA283E090E09E87D5
:102780008D87BCCF4823E3CF8DA19EA101969EA348
:102790008DA3DF91CF911F91FF90EF90DF90CF90AD
:1027A00008958430910598F5019798F1CE010E9423
:1027B00090118DA19EA110E097FD05C011E001C010
:1027C000110F8A95EAF7E8A4F9A4D11010952FA16A
:1027D0008AA59BA5820F911D27FD9A958E159F05B1
:1027E00031F1C880D9806E2DC6010E945E079D8D93
:1027F000412F9923D1F04095482BB701C6010E9483
:10280000420A8FA1E80EF11C87FDFA94E0CF0597EC
:10281000C1F4CE010E94950787E090E09EA38DA3AE
:1028200083E090E09E878D87C1CF4823E6CF8DA1BE
:102830009EA197FF04C026E030E03E872D870197D8
:10284000A6CF86E090E091CFFF920F931F93CF9396
:10285000DF93EC01F42E8D859E85662309F444C038
:102860008430910538F5019760F1CE010E949011F6
:102870002DA13EA18AA59BA528173907E9F008A537
:1028800019A58FA1082E000C990B2DA13EA14AA5D8
:102890005BA5480F591F4017510709F464C0F11098
:1028A00018C002171307C1F48FA1080F111D87FD6F
:1028B0001A95E7CF0597C9F285E090E09E878D874E
:1028C00056C0CE010E94950783E090E09E878D87D9
:1028D000CCCF0217130741F74D8D4195B801888180
:1028E00099810E94420AE0CF8430910500F501975A
:1028F00000F1CE010E94901108A519A54AA55BA57B
:102900008FA1082E000C990B2DA13EA1BA01680FD2
:10291000791F6017710701F1F11013C00217130737
:1029200099F48FA1080F111D87FD1A95E7CF059720
:1029300021F5CE010E94950783E090E09E878D8768
:10294000D8CF0217130769F74D8D4195B8018881DB
:1029500099810E94420AE5CF2417350724F446E006
:1029600050E05E874D87820F931F9EA38DA3DF915A
:10297000CF911F910F91FF90089586E090E09ECF38
:10298000EF92FF920F931F93CF93DF93EC01162FDB
:102990008D859E85442309F488C08330910528F0F5
:1029A0000397B1F185E090E02AC069897A898B8923
:1029B0009C899B01281B390BC90137FD0196959510
:1029C000879501969EA38DA31123B9F04D8D11E03B
:1029D00041274195681B790B888199810E94420AA1
:1029E0004D8D412741956B897C898DA19EA1680FF2
:1029F000791F888199810E94420A83E090E09E8736
:102A00008D87DF91CF911F910F91FF90EF900895E7
:102A10008DA19EA197FDC6CFCE010E949011F12CF1
:102A2000E12C6DA17EA1E616F706C4F44D8D41950B
:102A30006B897C896E0D7F1D888199810E94420A75
:102A40004D8D419569897A896E197F0988819981AF
:102A50000E94420A3FEFE31AF30AE3CF6150710983
:102A60007EA36DA3112369F277FDCBCF4D8D11E0CD
:102A7000412741958B899C89680F791F88819981AD
:102A80000E94420A4D8D4127419569897A898DA11D
:102A90009EA1681B790B88819981DF91CF911F914D
:102AA0000F91FF90EF900C94420A8330910531F121
:102AB00008F077C0019708F477C0CE010E94150F87
:102AC000CE010E9490111EA21DA2112399F04D8DDE
:102AD00001E04027419569897A89888199810E941E
:102AE000420A4D8D402741956B897C898881998167
:102AF0000E94420A83E090E09E878D872DA13EA12F
:102B000069897A898B899C89AB01481B590BCA0159
:102B100057FD019695958795821793070CF444C04D
:102B20004D8D4195621B730B888199810E94420AE9
:102B30004D8D41956B897C898DA19EA1680F791F70
:102B4000888199810E94420A2DA13EA12F5F3F4FAB
:102B50003EA32DA3112309F454CF69897A898B8967
:102B60009C89AB01481B590BCA0157FD01969595ED
:102B70008795821793070CF444CF4D8D11E04127C0
:102B80004195621B730B888199810E94420A4D8D89
:102B9000412741956B897C898DA19EA1680F791F82
:102BA0007ACF059709F489CF86E090E028CFCF92BD
:102BB000DF92EF92FF920F931F93CF93DF93EC017D
:102BC000162F8D859E85442309F458C084309105C5
:102BD000B0F5019708F43AC0CE010E9490112DA1E2
:102BE0003EA190E080E0111102C08FEF90E0281725
:102BF000390739F1E8A4F9A42FA18AA59BA5820F72
:102C0000911D27FD9A958E159F0581F10D8DC88028
:102C1000D9806E2DC6010E945E07011180954DA1DD
:102C200011114095482301114095B701C6010E943A
:102C3000420A8FA1E80EF11C87FDFA94DDCF0597BB
:102C400059F285E090E09E878D8771C0CE010E9489
:102C500095078FEF90E0111102C081E090E09EA3F4
:102C60008DA383E090E09E878D87B6CF8DA19EA136
:102C7000112309F457C09595879557C08430910565
:102C800050F5019750F1CE010E949011E8A4F9A4EB
:102C90002FA18AA59BA5820F911D27FD9A958E15C0
:102CA0009F0559F10D8DC880D9806E2DC6010E94F7
:102CB0005E07011180954DA1111140954823011126
:102CC0004095B701C6010E94420A8FA1E80EF11C8F
:102CD00087FDFA94DDCF0597C1F4CE010E949507D8
:102CE00081E090E0111102C08FEF90E09EA38DA3D0
:102CF00083E090E09E878D87C6CF8DA19EA11111A4
:102D000007C0009709F0B7CF06C086E090E09BCFE0
:102D10008F3F910539F426E030E03E872D8711235F
:102D200009F4A9CF880F991F81609EA38DA3DF911D
:102D3000CF911F910F91FF90EF90DF90CF9008956A
:102D4000AF92BF92CF92DF92EF92FF920F931F93B9
:102D5000CF93DF93EC01F62EE42E8D859E85222302
:102D600009F4A6C08430910590F50197B8F1CE0121
:102D70000E94150FCE010E9490110DA11EA1EE2000
:102D800009F448C0EE24E394F11002C070E8E72E85
:102D9000CDA0DEA08CA190E0019663E0880F991F82
:102DA0006A95E1F7081719070CF06CC0A880B98084
:102DB000602FC5010E945E079C2D19160CF5FF209F
:102DC000E9F0880F2D8D21118E299150F6CF0597AE
:102DD00071F285E090E09E878D875FC087E090E08C
:102DE0009EA38DA39CA18BA1981718F0E881F9816F
:102DF000158A83E090E09E878D87B9CF8695E2CFD4
:102E0000B8016C197D09482FC5010E94420A0F5F65
:102E10001F4FBECF8CA128E0829FC00111249C01CE
:102E2000201B310B8901085F1F4FEE24E394F11042
:102E300002C050E8E52ECDA0DEA08BA138E0839F34
:102E4000C001112408171907ECF0A880B980602F81
:102E5000C5010E945E079C2D191654F4FF2031F025
:102E6000880F2D8D21118E299150F6CF8695F9CF9F
:102E7000B8016C0D7D1D482FC5010E94420A01500A
:102E80001109D9CF8DA19EA1009721F425E030E052
:102E90003E872D8701979EA38DA3DF91CF911F9130
:102EA0000F91FF90EF90DF90CF90BF90AF9008957B
:102EB0008430910580F5019788F1EE20C1F10CA1D5
:102EC00088E0089F800111240A5F1F4F40E8B42E5C
:102ED000F11002C0BB24B394C880D9808BA128E034
:102EE000829FC0011124081719070CF450C0602FED
:102EF000C6010E945E07482FFF20B9F046958D8DD0
:102F000081114B29B8016F5F7F4FC6010E94420AB1
:102F100001501109E1CF059709F059C01EA21DA269
:102F200083E090E09E878D87C8CF440FE8CF0BA148
:102F300038E0039F800111240F5F1F4F30E8B32E4C
:102F4000F11002C0BB24B394C880D9808CA190E05A
:102F5000019623E0880F991F2A95E1F708171907B2
:102F6000B4F4602FC6010E945E07482FFF2069F06D
:102F700046958D8D81114B29B80161507109C601AB
:102F80000E94420A0F5F1F4FDFCF440FF2CF8881AC
:102F900099814D8D4195EE2091F06BA128E0629FC3
:102FA000B00111240E94420A8DA19EA18730910593
:102FB00021F426E030E03E872D8701966CCF6CA18E
:102FC00038E0639FB0011124695F7F4FEBCF86E04B
:102FD00090E001CFCF92DF92FF920F931F93CF9398
:102FE000DF93EC01F62E8D859E85442309F484C081
:102FF0008330910570F0039751F185E090E09E8752
:103000008D87DF91CF911F910F91FF90DF90CF902F
:1030100008951EA21DA2CE010E94150FFF2099F057
:103020004D8D11E04127419569897A89888199817F
:103030000E94420A4D8D412741956B897C89888188
:1030400099810E94420A83E090E09E878D87CE019D
:103050000E94150FCE010E9490110B891C8989894D
:103060009A89801B910B97FD01966C01D594C794AA
:103070008DA19EA1080F191FC816D9060CF4BDCF4B
:103080000F5F1F4F69897A898DA19EA19B01281B23
:10309000390B0217130744F44D8D4195B80188810F
:1030A00099810E94420AECCF01969EA38DA3FF2036
:1030B00009F4A7CFC816D9060CF4A3CF4D8D11E0A3
:1030C00041274195681B790B888199810E94420AAA
:1030D0004D8D412741956B897C898DA19EA1680FFB
:1030E000791F88819981DF91CF911F910F91FF9076
:1030F000DF90CF900C94420A83309105D1F1A0F576
:103100000197A0F189899A892B893C89821B930BAD
:1031100097FD0196959587959EA38DA3CE010E945C
:10312000150FCE010E949011FF20D9F04D8D11E0B6
:103130004127419569897A898DA19EA1681B790BE8
:10314000888199810E94420A4D8D412741956B8962
:103150007C898DA19EA1680F791F888199810E9429
:10316000420A83E090E04BCF059761F286E090E061
:1031700046CF8DA19EA197FDF9CF4D8D41956989CF
:103180007A89681B790B888199810E94420A4D8D4A
:1031900041956B897C898DA19EA1680F791F8881DB
:1031A00099810E94420A8DA19EA101979EA38DA3A1
:1031B000FF2009F426CF97FD24CF4D8D11E0412744
:1031C000419569897A897ECF8F929F92AF92BF9203
:1031D000CF92DF92EF92FF920F931F93CF93DF93E3
:1031E000EC01F62E8D859E85442309F4E0C08E0106
:1031F000095C1F4F35E0C32ED12C82309105E9F0D8
:1032000050F08330910509F441C0049709F4A8C037
:1032100085E090E00FC0BE01695C7F4FCE010E9447
:103220001D11811103C086E090E004C019AE18AEF4
:1032300083E090E09E878D870DC01FAA88A9882310
:10324000B1F0DE86CD868D859E852FA9211116C011
:10325000059799F7DF91CF911F910F91FF90EF9014
:10326000DF90CF90BF90AF909F908F900895B8015E
:10327000CE010E94A6108111E6CFE3CF059751F34E
:1032800019AE18AE83E090E09E878D878FA98823C2
:1032900029F121E02F2530E04CA16BA18881998193
:1032A0000E94710D888199816D8D2CA93DA948AD31
:1032B00059AD662301F1BA016F5F7F4F79AF68AFF7
:1032C000240F351FF90140814095FF20F1F06BA1DB
:1032D000F8E06F9FB00111240E94420A2FA988AD27
:1032E00099AD2817190609F0B5CF88A9811115C025
:1032F00082E090E09FCFBA016F5F7F4F79AF68AFF8
:10330000240F351FF9014081E0CF6CA128E0629FB6
:10331000B0011124695F7F4FDFCF29893A89FF20EF
:10332000B1F08F859889A901481B590BCA010196F4
:103330002BA158E0259F80199109112499AF88AFDE
:10334000181619060CF064CF84E090E073CF8CA1BE
:10335000E8E08E9FC00111240796821B930BEECFED
:1033600021E0262730E04CA16BA1888199810E9441
:10337000710D888199814D8D4195FF2081F06BA160
:10338000F8E06F9FB00111240E94420A88AD99AD08
:10339000019799AF88AF892B09F05CCF39CF6CA129
:1033A00028E0629FB0011124695F7F4FEDCF843028
:1033B000910539F0059709F036CF84E090E09E87BB
:1033C0008D8721E02F2530E04CA16BA18881998168
:1033D0000E94710D888199814D8D4195FF2009F4DE
:1033E00045C06BA138E0639FB00111240E94420ADE
:1033F0000CA110E0ABA0B12C6801CA18DB088FEF5C
:10340000C81AD80A23E0CC0CDD1C2A95E1F78E8D72
:103410009F8D009721F08C159D0508F46C010F5FBE
:103420001F4F83E0000F111F8A95E1F793E0AA0C6C
:10343000BB1C9A95E1F7FF2021F145017401EA18C0
:10344000FB0880169106DCF5682D888199810E9421
:103450005E0790E02D8D222389F02FEF30E0821758
:10346000930769F5EFEF8E1A9E0AE8CF6CA158E03A
:10347000659FB0011124695F7F4FB8CF30E020E035
:10348000EECF01501109F12CE12C0A151B05BCF0FF
:10349000602F888199810E945E0790E02D8D222304
:1034A00059F02FEF30E08217930749F401501109CA
:1034B000FFEFEF1AFF0AE9CF30E020E0F4CFEC1481
:1034C000FD0408F0B0CEC6CE2F923F924F925F928D
:1034D0006F927F928F929F92AF92BF92CF92DF9224
:1034E000EF92FF920F931F93CF93DF93CDB7DEB789
:1034F0002D970FB6F894DEBF0FBECDBF9A83898398
:103500007D836C83DC0198968C919897882309F4CD
:103510008BC09596ED91FC918689978975A764A7D4
:10352000E981FA8120A5222329F005A0F6A1E02D4A
:10353000978B868BA981BA8198968C9198978823CE
:1035400049F09596ED91FC911086178212861186AE
:1035500014861386E981FA8180A5882359F005A095
:10356000F6A1E02D81E090E0918F808F138E128E76
:103570001686158629813A812C5F3F4F3F832E8323
:1035800006E010E0E5E06E2E712CF3E04F2E512C9A
:10359000A981BA8158961C92212C1B82E981FA815B
:1035A00080A5281610F00C94662325A136A144E4CA
:1035B000249E200D311D11243D872C87D901929620
:1035C0001C9292971D962D913C911E9781E026307A
:1035D000310509F4D1C15C968C915C97882339F14F
:1035E00017968D919C91B0E0A0E02530310521F136
:1035F0002FB7F8944091C1025091C2026091C3026A
:103600007091C4022FBFEC85FD85C380D480E58016
:10361000F6804C195D096E097F09481759076A073A
:103620007B0750F580E0A8C181E090E079CFEC8580
:10363000FD8581859285D7CF2FB7F8944091C1023F
:103640005091C2026091C3027091C4022FBFEC85F9
:10365000FD85C380D480E580F6804C195D096E0934
:103660007F09C384D484F12CE12C4C155D056E05D3
:103670007F0508F0BDCFD6CFAC85BD8512969C9056
:103680009110D0CF2FB7F8948091C1029091C202CF
:10369000A091C302B091C4022FBFEC85FD85838346
:1036A0009483A583B68381E082A3A4A4B5A4A114C6
:1036B000B10409F457C185859685009709F435C092
:1036C000069709F44FC1AC85BD855C963C905C972C
:1036D000332009F4FAC05896ED91FC913197EC3102
:1036E000F10508F099C38827E758F44E8F4F0C94E2
:1036F000A528911C9A1CC11CC41CCB1C9D21CE1C4E
:10370000441E0F1F52209C1FDC201A2321232B2331
:10371000242334232D2336233D23402347234A23C8
:103720005223552359235C236323AC85BD859F9683
:10373000BC92AE929E979496EC90B8E0EB9E70018E
:103740001124F70137967F01AC85BD8593968C9146
:10375000B8E08B9FE018F1081124EFEFEE1AFE0A93
:10376000D12CC12CD5016D915D016623C1F0EC8592
:10377000FD8524A935A970E043A9CF010E94530F0C
:1037800090E0C80ED91E892B69F3D5018C9188234E
:1037900049F3EC85FD8586A9C80ED11CE3CFAC8525
:1037A000BD855096DC92CE921F9756968D919C9136
:1037B0008130910509F455C028F0029771F19924E0
:1037C00093941DC0EC85FD8584A190E0019673E083
:1037D000880F991F7A95E1F79C0121503109328BAE
:1037E000218BEC14FD0490F483A1F8E08F9FC001BD
:1037F0001124AC85BD8554969C938E93539781E09C
:103800009826EC85FD85958A848F5DCF8C199D095E
:10381000EC85FD85948B838BD2CFAC85BD8593964B
:103820008C91B8E08B9FC0011124EC85FD85948BB1
:10383000838BEC14FD0468F484A1F8E08F9FC00131
:1038400011240796AC85BD8552969C938E93519713
:10385000D6CF0197C80ED91EEC85FD85D28AC18AC4
:10386000AECFAC85BD8593962C91B8E02B9F90018F
:103870001124EC14FD0498F4EC85FD8584A1F8E096
:103880008F9FC00111240796AC85BD8552969C93ED
:103890008E93519754963C932E935397B0CFEC1838
:1038A000FD08F694E794E20EF31EEC85FD85F48A9C
:1038B000E38AF1E0CF1AD108CE0CDF1CAC85BD85C0
:1038C0005296DC92CE9251977ACFAC85BD855A96AE
:1038D000ED91FC913197EC31F10508F09DC28827FC
:1038E000EB58F34E8F4F0C94A528811F9A1CC11CD6
:1038F000C41CCB1C9D21CE1C441E0F1F52209C1F9C
:10390000DC201A2321232B23242334232D233623A5
:103910003D23402347234A235223552359235C2325
:1039200063238C859D850E949011EC85FD857686AC
:10393000658606C0432D61E08C859D850E94A51299
:10394000AC85BD855C968C915C971D962D913C91C4
:10395000882329F081E02530310509F480E0EC85E9
:10396000FD85848F81E0AC85BD851D962D913C91B0
:103970002630310509F056CEBB81B82BBB8323948A
:103980000DCE432D60E0D8CF432D61E08C859D8521
:103990000E94E418D5CF432D60E0F8CFEC85FD857B
:1039A00085859685332009F4EAC07F01F7E3EF0EA1
:1039B000F11C82309105A1F130F0039709F45BC04E
:1039C000AC85BD8566C26C857D85695C7F4F8C85C5
:1039D0009D850E941D11811103C0AC85BD85CAC69D
:1039E0008C859D850E94150FEC85FD8511AE10AE6E
:1039F00083A1F8E08F9FC0011124AC85BD85969608
:103A00009C938E93959751968D919C9152979B96EE
:103A10009C938E939A971E965C924E921D9790CF90
:103A2000EC85FD8517AA80A9882381F0AC85BD852A
:103A30001E967C926E921D97EC85FD8585859685F8
:103A400027A921110BC0059759F77ACFB7018C85AB
:103A50009D850E94A6108111EFCFE8CF059709F44C
:103A60006FCFAC85BD85D9961C921E92D8971E96B5
:103A70005C924E921D97EC85FD8565A176A182A58D
:103A800093A504A8F5A9E02DAC85BD85D8962D9108
:103A90003C91D997E20FF31F40816817790751F4E1
:103AA0008D919C9111975D962C91211140950E94CA
:103AB000420A3BCF411135C0AC85BD8596969C939B
:103AC0008E939597EC85FD8585A196A122A533A5BA
:103AD00082179307C1F420AD31AD43A1F8E04F9FA9
:103AE000A0011124AC85BD8596965C934E93959765
:103AF0002F5F3F4FD9963C932E93D89701979B9673
:103B00009C938E939A97EC85FD8527A980AD91AD06
:103B10002817190609F014CF82E090E09687858770
:103B20000FCFEC85FD85458D4195808191810E9467
:103B3000420AAC85BD8595966D917C9196976F5F95
:103B40007F4F96967C936E9395978D919C9111974C
:103B50005D96EC915D97D4962D913C91D597D89632
:103B60004D915C91240F351FEE2331F0F901408116
:103B700040950E94420AA6CFD9014C91FACF8130DC
:103B8000910508F42ACF8430910568F0059709F073
:103B900024CFEC85FD858189928993A782A796A37E
:103BA00085A356864586AC85BD85CD90DC90119762
:103BB0005D968C9188248A94912C811102C0912C5D
:103BC000812CEC85FD85A388B488AC85BD85959650
:103BD000ED90FC906E2DC6010E945E07EC85FD8580
:103BE00022A533A58815190451F42A153B053CF08C
:103BF000C901019793A782A736A325A3E6CF2F5F1C
:103C00003F4F2A153B050CF4E8CEEC85FD8524A139
:103C1000F8E02F9F90011124295F3F4FE216F30631
:103C20003CF4B7016F5F7F4F482FC6010E94420AE4
:103C3000AC85BD855D964C915D97419595966D914E
:103C40007C9196978D919C910E94420AEC85FD850E
:103C500025A136A12F5F3F4F36A325A384A190E075
:103C6000019643E0880F991F4A95E1F72817390715
:103C700009F066CE82A593A59C012150310933A796
:103C800022A796A385A35CCEEC85FD8585859685C8
:103C9000332009F467C08430910508F042C00197D1
:103CA00008F443C08C859D850E94150F8C859D85E9
:103CB0000E949011EC85FD8593A0990C990C990CAC
:103CC00088248394AC85BD859596ED90FC9096975D
:103CD00094968C91949790E0019623E0880F991F19
:103CE0002A95E1F7A92CB12CA816B90674F5CD9048
:103CF000DC90692DC6010E945E07482F50E087E0E6
:103D000090E08E199F093320D9F002C05595479550
:103D10008A95E2F7B501C6010E94420A38249394BD
:103D2000D1CF059709F4BECF00CEAC85BD85969660
:103D30001C921E9295971E965C924E921D97B2CF42
:103D400001C0440F8A95EAF7E5CFBFEFEB1AFB0AF3
:103D5000EC85FD85F6A2E5A2F8E0EF16F10409F086
:103D6000EFCD2ECE8430910598F50197A0F1AC856A
:103D7000BD8593969C90990C990C990C88248394FA
:103D800033243394EC85FD85E5A0F6A084A190E072
:103D90000196B3E0880F991FBA95E1F7A92CB12CD1
:103DA000A816B9065CF5C080D180692DC6010E94B5
:103DB0005E07482F50E08820D9F001C0440FEA94F4
:103DC000EAF7B501C6010E94420A83249394DACF30
:103DD000059709F002CEE1E0F0E0AC85BD8596964E
:103DE000FC93EE9395971E965C924E921D97BFCFD3
:103DF00002C055954795EA94E2F7E3CFFFEFEF1A3B
:103E0000FF0AAC85BD859696FC92EE929597B8E038
:103E1000EB16F10409F094CDEC85FD8508C4EC8522
:103E2000FD8585859685332009F45AC08430910537
:103E300000F58230910500F5009781F1019709F0B6
:103E4000BFCDAC85BD8595966D917C919697CB0144
:103E5000019696969C938E939597CD010E94D00ED5
:103E60008C859D850E949011EC85FD855686458642
:103E700067CD059709F0A4CDAC85BD8595966D916C
:103E80007C9196979A968D919C919B978617970710
:103E9000ECF41E967C926E921D9752CDAC85BD853A
:103EA00096961C921E92959791968C91919790E080
:103EB0009B969C938E939A97CD010E94150F21E0BB
:103EC00030E0EC85FD85368725873ACDCB0101961C
:103ED000EC85FD8596A385A3CF010E94D00E30CD41
:103EE0008430910598F40197A0F0EC85FD8565A1DB
:103EF00076A1CB01019777FFEBCF62A5CF010E949E
:103F0000D00E8C859D850E94150F67CD059709F011
:103F100064CDEC85FD8561A1862F90E093A782A7F3
:103F200096A385A3CF010E94D00E8C859D850E940B
:103F30009011AC85BD856FCDEC85FD858585968519
:103F40008230910509F45DC048F4009769F001974B
:103F5000B9F031102EC186E090E0E6C083309105C3
:103F600009F492C00597A9F7AC85BD8596961C9279
:103F70001E929597E1E0F0E01E96FC93EE931D975C
:103F8000AC85BD8595968D919C9196970196969658
:103F90009C938E9395979396EC90B8E0EB9E70016E
:103FA0001124DD24D394EC85FD8525A136A184A1BF
:103FB00090E00196A3E0880F991FAA95E1F7E81613
:103FC000F90694F4C701837099278217930744F484
:103FD000458D4D254195B701808191810E94420A0E
:103FE000FFEFEF1AFF0ADFCF82E090E024303105C7
:103FF00009F0A6CCAC85BD851E969C938E931D972B
:104000009FCC8C859D850E94150F332021F08C85D7
:104010009D850E949011EC85FD8585A196A1019753
:1040200096A385A3E3A0F8E0EF9E70011124DD24A0
:10403000D394AC85BD8595962D913C919697949699
:104040008C91949790E00196F3E0880F991FFA9570
:10405000E1F7E816F906A4F4C701837099278217DF
:10406000930754F45D964C915D974D254195B701AA
:104070008D919C910E94420ABFEFEB1AFB0AD9CFA7
:10408000232B09F05DCCF0CE8C859D850E94150F09
:10409000332009F412C18C859D850E94901185E022
:1040A00090E0A8CFAC85BD851D968D919C91823006
:1040B000910509F43CC038F08330910509F46EC0D5
:1040C000059709F0F8C0EC85FD85E3A0F8E0EF9EC8
:1040D00070011124AC85BD8594968C91949790E0E5
:1040E0000196E3E0880F991FEA95E1F7E816F906D3
:1040F000CCF45D96BC905D97CD90DC906E2DC601A2
:104100000E945E07B110809545E5E0FE4AEA482B23
:10411000B1104095B701C6010E94420ABFEFEB1AE9
:10412000FB0AD8CF82E090E0EC85FD85F7CC8C854A
:104130009D850E94150F332021F08C859D850E945E
:104140009011AC85BD859396EC90B8E0EB9E700124
:104150001124EC85FD8584A190E0019673E0880F21
:10416000991F7A95E1F7E816F9060CF0E2CEB58CC6
:10417000C080D1806E2DC6010E945E07B11080956F
:104180004AEAE0FE45E5482BB1104095B701C6016B
:104190000E94420AFFEFEF1AFF0ADBCF8C859D8554
:1041A0000E94150F332009F4D6CE8C859D850E9480
:1041B000901185E090E0B8CFEC85FD8585859685EA
:1041C0008430910508F07CC0019708F47CC0EC8530
:1041D000FD8516A215A20E94EA274B015C010E94F0
:1041E000EA27688779878A879B87AC85BD859596FE
:1041F000CD90DC90BFEFCB1ADB0AEC85FD85D6A213
:10420000C5A2C501B4012BE030E040E050E00E94BF
:10421000422870E09B0121553D4F7901D901BC90A6
:10422000688579858A859B8528E030E040E050E00C
:104230000E9442288B2D90E0062E02C0959587950E
:104240000A94E2F780FF05C0B8E8CB16B3E1DB06BD
:1042500014F281E090E001C0880F6A95EAF7B82A6D
:10426000F701B0828C859D850E949011AC85BD853B
:1042700096961C921E9295979396BC90BB0CBB0C85
:10428000BB0CEC85FD8584A190E0019663E0880F6E
:10429000991F6A95E1F7CB2CD12CC816D90614F1D9
:1042A000EFEAF2E081918F3F09F04ACB27EB32E051
:1042B0002E173F07B9F73110F2CE86E090E09ACE84
:1042C000059709F046CEEFEAF2E011922AEB32E0D0
:1042D0002E173F07D1F7AC85BD851E965C924E9296
:1042E0001D9775CFAC85BD85ED90FC906B2DC701FA
:1042F0000E945E07AC85BD859596ED91FC91E155D8
:10430000FD4F4081311001C040954823B601C701DF
:104310000E94420AEC85FD8585A196A101968B300D
:10432000910521F096A385A3B394ABCFAC85BD8551
:1043300096961C921E929597F7CFAC85BD851D96DB
:104340008D919C913110F6C18430910508F0EEC139
:10435000019778F58C859D850E949507EC85FD85F4
:1043600080A591A522A533A58217930724F431A730
:1043700020A793A782A7AC85BD85DE968D919C91E1
:10438000DF97892B09F4F6C1EC85FD8583A1F8E060
:104390008F9FC00111240197AC85BD8596969C9393
:1043A0008E93959797961C9297971E965C924E9235
:1043B0001D978C859D850E949011EC85FD8585A1BA
:1043C00096A1019696A385A3F12C6F01F1E4CF0E7F
:1043D000D11CD6012C91EC85FD8565A176A1822F9B
:1043E00090E0F21608F0E1C04F2D50E0641B750B11
:1043F00084A190E0019633E0880F991F3A95E1F788
:10440000681779072CF583A1F8E08F9FC00111246C
:1044100068177907ECF0AC85BD858D919C9111975B
:1044200097963C919797320390011124420F531FA6
:10443000DE96ED91FC91DF97E40FF51F5D962C91D0
:10444000222309F4B0C0E4914E2F40950E94420A05
:10445000F394BFCFEC85FD8517A284A190E001966F
:1044600053E0880F991F5A95E1F796A385A35686C6
:1044700045868C859D850E949011AC85BD8595965D
:104480008D919C919697019796969C938E93959774
:10449000F12C6D01B0E4CB0ED11CF6012081AC856E
:1044A000BD8595966D917C919697F21608F03AC06D
:1044B000EF2DF0E06E0F7F1F94968C91949790E013
:1044C000019643E0880F991F4A95E1F7681779072D
:1044D0002CF593968C91B8E08B9FC001112468173E
:1044E0007907E4F0AC85BD858D919C9111979796E5
:1044F0004C9197974203A00111244E0F5F1FDC9649
:10450000ED91FC91DD97E40FF51F5D962C91222330
:1045100039F0E4914E2F40950E94420AF394BDCFAA
:104520004491FACF7B01B1E0EB1AF108EC85FD85EF
:1045300082A593A5E816F9065CF0458D4195B70173
:10454000808191810E94420AF1E0EF1AF108EECFDA
:10455000AC85BD8597968C9197978F5F97968C9336
:104560009797082E000C990BFD01EE5BFF4F208101
:104570002817190609F014F497961C92EC85FD850E
:1045800083A1F8E08F9FC0011124D6012C91821BDA
:1045900091090197EC85FD8525A136A128173907DA
:1045A00009F0CEC9C4C9449151CF7B01E81AF90A78
:1045B000EC85FD8582A593A5E816F9065CF0458D8E
:1045C0004195B701808191810E94420AF1E0EF1A82
:1045D000F108EECFAC85BD8597968C9197978F5F4C
:1045E00097968C939797082E000C990BFD01ED5B25
:1045F000FF4F20812817190609F014F497961C9292
:10460000EC85FD8584A1F8E08F9F90011124295F3E
:104610003F4FD6018C91820F932F911D0196EC850F
:10462000FD8525A136A12817390709F089C9168704
:10463000058786C9432D60E08C859D850E94E51124
:104640007FC9432D61E0F8CF41E0632D8C859D85C6
:104650000E94241475C940E0F8CF41E0632D8C8599
:104660009D850E946B136CC940E0F8CF432D60E03C
:104670008C859D850E94C01463C9432D61E0F8CFED
:10468000432D60E08C859D850E94EA1759C9432D12
:1046900061E0F8CF232D41E061E08C859D850E948B
:1046A000A0164EC9232D40E0F7CF232D41E060E056
:1046B000F4CF232D40E0FBCF432D61E08C859D8519
:1046C0000E94D7153DC9432D60E0F8CF81E0E98114
:1046D000FA81808F8E819F810E94F90CFB81F111FC
:1046E0000C94C81AEC81FD8101900020E9F7319704
:1046F000CF012C813D81821B930B2D960FB6F89430
:10470000DEBF0FBECDBFDF91CF911F910F91FF9004
:10471000EF90DF90CF90BF90AF909F908F907F9061
:104720006F905F904F903F902F900895059709F4F8
:1047300011CE53C98430910510F5019708F099CE38
:104740008C859D850E949507EC85FD8580A591A5AA
:1047500022A533A58217930724F431A720A793A796
:1047600082A7AC85BD85DC968D919C91DD97892BC8
:1047700009F070CE1E961C930E931D97E1C8059705
:1047800009F477CE1DC91F920F920FB60F92112414
:104790000BB60F922F933F934F935F936F937F933B
:1047A0008F939F93AF93BF93EF93FF9389EC92E026
:1047B0000E941B05FF91EF91BF91AF919F918F9147
:1047C0007F916F915F914F913F912F910F900BBE11
:1047D0000F900FBE0F901F9018951F920F920FB65B
:1047E0000F9211240BB60F922F938F939F93EF93F9
:1047F000FF93E091D902F091DA028081E091DF022B
:10480000F091E00282FD1DC090818091E2028F5FF5
:104810008F732091E302821741F0E091E202F0E011
:10482000E753FD4F958F8093E202FF91EF919F91A7
:104830008F912F910F900BBE0F900FBE0F901F9076
:1048400018958081F2CF1F920F920FB60F9211240C
:104850002F933F938F939F93AF93BF938091C10208
:104860009091C202A091C302B091C4023091C002E3
:1048700023E0230F2D3758F50196A11DB11D20937C
:10488000C0028093C1029093C202A093C302B0936E
:10489000C4028091BC029091BD02A091BE02B09171
:1048A000BF020196A11DB11D8093BC029093BD0271
:1048B000A093BE02B093BF02BF91AF919F918F9121
:1048C0003F912F910F900FBE0F901F90189526E8E3
:1048D000230F0296A11DB11DD2CFEF92FF921F931D
:1048E000CF93DF931092CC021092CB0288EE93E02C
:1048F000A0E0B0E08093CD029093CE02A093CF02CF
:10490000B093D00282E992E09093CA028093C902E8
:1049100085EC90E09093D6028093D50284EC90E0F1
:104920009093D8028093D70280EC90E09093DA02C3
:104930008093D90281EC90E09093DC028093DB02BB
:1049400082EC90E09093DE028093DD0286EC90E0B2
:104950009093E0028093DF021092E2021092E30251
:104960001092E4021092E5021092C2031092C10369
:1049700084EA92E09093C0038093BF038BE080931E
:10498000C8038DE08093C9038AE08093CA03109224
:10499000CB0386E693E09093CD038093CC0382E033
:1049A0008093CE0391E09093D70321E030E03093E1
:1049B000C4032093C3039093C5031092C6031092BF
:1049C000C7038093E603CBE0D0E0D093B803C09355
:1049D000B7038DE090E09093BA038093B9038AE027
:1049E00090E09093BC038093BB0382E090E09093AF
:1049F000BE038093BD0361E08BE00E94990661E0F5
:104A00008091B9030E94990661E08091BB030E94E6
:104A1000990661E08091BB030E946B06D093B803B6
:104A2000C093B703E7E7F3E0119223E0E73BF20717
:104A3000D9F7D0E0C0E08091BD039091BE03C817C4
:104A4000D9070CF041C040E06FE0CE010E94F107B1
:104A50008091BD039091BE03C817D9072CF447E09D
:104A60006BE0CE010E94F10740E069E0CE010E94B8
:104A7000F1078091BD039091BE03C817D907B4F424
:104A8000CE0123E0880F991F2A95E1F7FC01E95830
:104A9000FC4F7F0111E0F70111927F0140E0612F8F
:104AA000CE010E94F1071F5F1930A9F78091BD0365
:104AB0009091BE03C817D9072CF440E06CE0CE01FA
:104AC0000E94F1072196B7CFDF91CF911F91FF9000
:104AD000EF900895789484B5826084BD84B5816038
:104AE00084BD85B5826085BD85B5816085BD8091B9
:104AF0006E00816080936E00109281008091810031
:104B00008260809381008091810081608093810028
:104B1000809180008160809380008091B1008460EA
:104B20008093B1008091B00081608093B00080914B
:104B300091008260809391008091910081608093C8
:104B40009100809190008160809390008091A100FD
:104B500082608093A1008091A10081608093A10078
:104B60008091A00081608093A000809121018260EB
:104B700080932101809121018160809321018091A6
:104B8000200181608093200180917A00846080936D
:104B90007A0080917A00826080937A0080917A0016
:104BA000816080937A0080917A00806880937A0097
:104BB0001092C100E091D902F091DA0282E0808384
:104BC000E091D502F091D6021082E091D702F091E7
:104BD000D8028FEC80831092E102E091DD02F09127
:104BE000DE0286E08083E091DB02F091DC028081CE
:104BF00080618083E091DB02F091DC02808188603B
:104C00008083E091DB02F091DC0280818068808308
:104C1000E091DB02F091DC0280818F7D808360E097
:104C200089E00E94990660E088E00E94990660E0B1
:104C300086E00E94990660E085E00E94990660E0A7
:104C400084E00E94990660E083E00E9499068091CA
:104C5000BD039091BE031816190634F441E06CE0D0
:104C600090E080E00E94F1078091BD039091BE0327
:104C7000029734F041E06CE081E090E00E94F1079F
:104C80008091BD039091BE031816190634F448E0D4
:104C90006AE090E080E00E94F1078091BD0390916E
:104CA000BE03029734F048E06AE081E090E00E94A1
:104CB000F1070E943408C1E0D0E011E085E00E94D5
:104CC00042060197E9F41092000286E00E94420633
:104CD000019709F047C01092010283E00E9442064A
:104CE000019709F071C01092020284E00E9442060E
:104CF000019709F095C0109283020E94AA05DECFA9
:104D0000809100028111E1CF8091C7029091C80289
:104D10002091C5023091C602DC0143E0AA0FBB1FFF
:104D20004A95E1F7A20FB31FAA0FBB1FAD5FBD4F9E
:104D30001D921C9201969093C8028093C702FC01B9
:104D400063E0EE0FFF1F6A95E1F7E20FF31FEE0F2E
:104D5000FF1FED5FFD4FD183C0830E943408109385
:104D60000002B3CF809101028111B7CF8091C702B9
:104D70009091C8022091C5023091C602DC01E3E0A7
:104D8000AA0FBB1FEA95E1F7A20FB31FAA0FBB1F23
:104D9000AD5FBD4F1D921C9201979093C802809306
:104DA000C702FC01A3E0EE0FFF1FAA95E1F7E20F97
:104DB000F31FEE0FFF1FED5FFD4FD183C0830E94F5
:104DC00034081093010289CF8091020281118DCFA6
:104DD0008091C7029091C802E091C502F091C6028D
:104DE00053E0880F991F5A95E1F7DC01AE0FBF1F02
:104DF000AA0FBB1FAD5FBD4F1D921C923196F09361
:104E0000C602E093C502E80FF91FEE0FFF1FED5F2A
:104E1000FD4FD183C0830E9434081093020265CFF6
:104E200080918302811169CF8091C7029091C8025D
:104E3000E091C502F091C60223E0880F991F2A95E0
:104E4000E1F7DC01AE0FBF1FAA0FBB1FAD5FBD4F67
:104E50001D921C923197F093C602E093C502E80FB1
:104E6000F91FEE0FFF1FED5FFD4FD183C0830E943E
:104E700034081093830241CF0F931F93CF93DF9396
:104E800084EA92E09093C0038093BF03C091E4034F
:104E9000D091E503209759F1FE01329720813181AD
:104EA00044E4429FC001439F900D1124C80FD91FB5
:104EB0008091E4039091E5038C179D07A1F0C45401
:104EC000D10989A99AA9009739F0FC0104811581BB
:104ED0000E944929C801F7CF8CA99DA9009741F3E9
:104EE0000E944929E5CFCE0102970E94492980916D
:104EF000CB03882399F09FB7F8948091AE02882362
:104F000019F081508093AE028091AE02811105C0EC
:104F10008CB58F7B8CBD1092BB029FBF8091CF035D
:104F20009091D0030E9449298091D1039091D2039E
:104F3000DF91CF911F910F910C9449298F929F92ED
:104F4000AF92BF92CF92DF92EF92FF92CF93DF9317
:104F5000EC01688179818A819B81611571058105E8
:104F6000910521F464E279ED8BE597E02DE133EFD3
:104F700041E050E00E94422849015A019B01AC01E6
:104F8000A7EAB1E40E9461286B017C01ACEEB4EFAA
:104F9000A50194010E946F28C60ED71EE81EF91EB7
:104FA000F7FE06C081E0C81AD108E10880E8F80AD7
:104FB000C882D982EA82FB82C701B6019F77DF915E
:104FC000CF91FF90EF90DF90CF90BF90AF909F90E8
:104FD0008F9008958F929F92AF92BF92CF92DF925F
:104FE000EF92FF9260918402709185028091860217
:104FF00090918702611571058105910521F464E2A4
:1050000079ED8BE597E02DE133EF41E050E00E9430
:10501000422849015A019B01AC01A7EAB1E40E9470
:1050200061286B017C01ACEEB4EFA50194010E94F4
:105030006F28C60ED71EE81EF91EF7FE06C081E0D7
:10504000C81AD108E10880E8F80AC0928402D09218
:105050008502E0928602F0928702C701B6019F772F
:10506000FF90EF90DF90CF90BF90AF909F908F9088
:1050700008956093840270938502809386029093D2
:1050800087020895052E97FB1EF400940E9459286C
:1050900057FD07D00E94742807FC03D04EF40C94EF
:1050A000592850954095309521953F4F4F4F5F4F70
:1050B000089590958095709561957F4F8F4F9F4F84
:1050C00008950E949628A59F900DB49F900DA49FCF
:1050D000800D911D11240895B7FF0C9461280E9442
:1050E0006128821B930B0895A1E21A2EAA1BBB1BF9
:1050F000FD010DC0AA1FBB1FEE1FFF1FA217B307A4
:10510000E407F50720F0A21BB30BE40BF50B661FB9
:10511000771F881F991F1A9469F76095709580957D
:1051200090959B01AC01BD01CF010895A29FB001F4
:10513000B39FC001A39F700D811D1124911DB29FCB
:10514000700D811D1124911D0895EE0FFF1F881F02
:105150008BBF0790F691E02D19940F931F93CF9377
:10516000DF938230910510F482E090E0E091EA0351
:10517000F091EB0330E020E0B0E0A0E0309799F44C
:105180002115310509F44AC0281B390B243031059B
:10519000D8F58A819B816115710589F1FB019383A3
:1051A0008283FE0111C04081518102811381481721
:1051B0005907E0F04817590799F4109761F01296D3
:1051C0000C93129713961C933296CF01DF91CF91D7
:1051D0001F910F9108950093EA031093EB03F4CF0E
:1051E0002115310551F04217530738F0A901DB01B1
:1051F0009A01BD01DF01F801C1CFEF01F9CF909312
:10520000EB038093EA03CDCFFE01E20FF31F8193FE
:1052100091932250310939832883D7CF2091E80315
:105220003091E903232B41F420918A0230918B02C3
:105230003093E9032093E80320918802309189029A
:105240002115310541F42DB73EB740918C025091A4
:105250008D02241B350BE091E803F091E903E2177E
:10526000F307A0F42E1B3F0B2817390778F0AC0189
:105270004E5F5F4F2417350748F04E0F5F1F509366
:10528000E9034093E803819391939FCFF0E0E0E03E
:105290009CCFCF93DF930097E9F0FC013297138204
:1052A0001282A091EA03B091EB03ED0130E020E01F
:1052B0001097A1F420813181820F931F2091E80380
:1052C0003091E9032817390709F061C0F093E90329
:1052D000E093E803DF91CF910895EA01CE17DF074D
:1052E000E8F54A815B819E0141155105B1F7E9015D
:1052F000FB83EA8349915991C40FD51FEC17FD0731
:1053000061F4808191810296840F951FE901998350
:105310008883828193819B838A83F0E0E0E0129608
:105320008D919C9113970097B9F52D913C91119710
:10533000CD010296820F931F2091E8033091E9037B
:105340002817390739F6309751F51092EB03109270
:10535000EA03B093E903A093E803BCCFD383C283ED
:1053600040815181840F951FC817D90761F44E5FA2
:105370005F4F88819981480F591F518340838A81EB
:105380009B81938382832115310509F0B0CFF0937F
:10539000EB03E093EA039ECFFD01DC01C0CF138253
:1053A0001282D7CFFB01DC0102C001900D92415067
:1053B0005040D8F70895DC0101C06D934150504032
:1053C000E0F7089514E0CEE1D4E000E006C0802FBD
:1053D000FE010E94A5282196011DCF31D10780E052
:0853E0000807A9F7F894FFCFBC
:1053E80001010101000000000000000000000000B1
:1053F80000000000000000000000000000000000A5
:105408000000000000000000000000000000000094
:105418000000000000000000000000000000000084
:105428000000000000000000000000000000000074
:105438000000000000000000000000000000000064
:105448000000000000000000000000000000000054
:105458000000000000000000000000000000000044
:1054680000000001010000000000EC0380000000C3
:1054780000003D05A704D4048A050505E304F704E4
:0E54880000000000B507EA10CF07CE07641A37
:00000001FF
